{
  "_format": "hh-sol-artifact-1",
  "contractName": "MockV3Aggregator",
  "sourceName": "contracts/mocks/MockV3Aggregator.sol",
  "abi": [
    {
      "inputs": [
        {
          "internalType": "uint8",
          "name": "_decimals",
          "type": "uint8"
        },
        {
          "internalType": "int256",
          "name": "_initialAnswer",
          "type": "int256"
        }
      ],
      "stateMutability": "nonpayable",
      "type": "constructor"
    },
    {
      "inputs": [],
      "name": "decimals",
      "outputs": [
        {
          "internalType": "uint8",
          "name": "",
          "type": "uint8"
        }
      ],
      "stateMutability": "view",
      "type": "function"
    },
    {
      "inputs": [],
      "name": "description",
      "outputs": [
        {
          "internalType": "string",
          "name": "",
          "type": "string"
        }
      ],
      "stateMutability": "pure",
      "type": "function"
    },
    {
      "inputs": [
        {
          "internalType": "uint80",
          "name": "",
          "type": "uint80"
        }
      ],
      "name": "getRoundData",
      "outputs": [
        {
          "internalType": "uint80",
          "name": "roundId",
          "type": "uint80"
        },
        {
          "internalType": "int256",
          "name": "answer",
          "type": "int256"
        },
        {
          "internalType": "uint256",
          "name": "startedAt",
          "type": "uint256"
        },
        {
          "internalType": "uint256",
          "name": "updatedAt",
          "type": "uint256"
        },
        {
          "internalType": "uint80",
          "name": "answeredInRound",
          "type": "uint80"
        }
      ],
      "stateMutability": "view",
      "type": "function"
    },
    {
      "inputs": [],
      "name": "latestAnswer",
      "outputs": [
        {
          "internalType": "int256",
          "name": "",
          "type": "int256"
        }
      ],
      "stateMutability": "view",
      "type": "function"
    },
    {
      "inputs": [],
      "name": "latestRound",
      "outputs": [
        {
          "internalType": "uint80",
          "name": "",
          "type": "uint80"
        }
      ],
      "stateMutability": "view",
      "type": "function"
    },
    {
      "inputs": [],
      "name": "latestRoundData",
      "outputs": [
        {
          "internalType": "uint80",
          "name": "roundId",
          "type": "uint80"
        },
        {
          "internalType": "int256",
          "name": "answer",
          "type": "int256"
        },
        {
          "internalType": "uint256",
          "name": "startedAt",
          "type": "uint256"
        },
        {
          "internalType": "uint256",
          "name": "updatedAt",
          "type": "uint256"
        },
        {
          "internalType": "uint80",
          "name": "answeredInRound",
          "type": "uint80"
        }
      ],
      "stateMutability": "view",
      "type": "function"
    },
    {
      "inputs": [],
      "name": "latestTimestamp",
      "outputs": [
        {
          "internalType": "uint256",
          "name": "",
          "type": "uint256"
        }
      ],
      "stateMutability": "view",
      "type": "function"
    },
    {
      "inputs": [
        {
          "internalType": "int256",
          "name": "_answer",
          "type": "int256"
        }
      ],
      "name": "updateAnswer",
      "outputs": [],
      "stateMutability": "nonpayable",
      "type": "function"
    },
    {
      "inputs": [],
      "name": "version",
      "outputs": [
        {
          "internalType": "uint256",
          "name": "",
          "type": "uint256"
        }
      ],
      "stateMutability": "pure",
      "type": "function"
    }
  ],
  "bytecode": "0x6080604052348015600f57600080fd5b506040516103c93803806103c9833981016040819052602c916061565b6000805460ff191660ff9390931692909217909155600190815542600255600380546001600160501b03191690911790556093565b60008060408385031215607357600080fd5b825160ff81168114608357600080fd5b6020939093015192949293505050565b610327806100a26000396000f3fe608060405234801561001057600080fd5b50600436106100935760003560e01c80637284e416116100665780637284e416146101055780638205bf6a1461013c5780639a6fc8f514610145578063a87a20ce146101a6578063feaf968c146101bb57600080fd5b8063313ce5671461009857806350d25bcd146100bc57806354fd4d50146100d3578063668a0f02146100da575b600080fd5b6000546100a59060ff1681565b60405160ff90911681526020015b60405180910390f35b6100c560015481565b6040519081526020016100b3565b60036100c5565b6003546100ed906001600160501b031681565b6040516001600160501b0390911681526020016100b3565b6040805180820182526015815274135bd8dac8119b1bdbd90813195d995b0811995959605a1b602082015290516100b39190610221565b6100c560025481565b61017261015336600461026f565b506003546001546002546001600160501b039092169290919081908490565b604080516001600160501b03968716815260208101959095528401929092526060830152909116608082015260a0016100b3565b6101b96101b436600461029f565b6101d7565b005b6003546001546002546001600160501b03909216918083610172565b600181905542600255600380546001600160501b03169060006101f9836102b8565b91906101000a8154816001600160501b0302191690836001600160501b031602179055505050565b602081526000825180602084015260005b8181101561024f5760208186018101516040868401015201610232565b506000604082850101526040601f19601f83011684010191505092915050565b60006020828403121561028157600080fd5b81356001600160501b038116811461029857600080fd5b9392505050565b6000602082840312156102b157600080fd5b5035919050565b60006001600160501b0382166001600160501b0381036102e857634e487b7160e01b600052601160045260246000fd5b6001019291505056fea264697066735822122081f642209c6569ba314e48e16b4c89cbaf86ff74a36d8fe1e774e86e6d0f75f864736f6c634300081c0033",
  "linkReferences": {},
  "deployedLinkReferences": {}
}